:020000040000FA
:020000000528D1
:040002000034003492
:0800080008281320A52006289A
:10001000AF20831203130C189120831203130D1ABF
:100020009920B32009008316031305148514831641
:10003000031708148814831603139F0183120313F4
:1000400081309F008B170B1730307320773C031DD6
:100050002A283920831603130C14831203130C105F
:100060008312031390101016901610108C209D20F0
:1000700008003030831203178D0077308312031786
:100080008C007E203130831203178D0040308312A4
:1000900003178C007E2008005B20831203132508C1
:1000A000831203178C00831203132708831203178C
:1000B0008D007E2008003130831203178D007320DD
:1000C000013E83120313A700493C031869284030FE
:1000D000A7002708831203178C00313083120317FF
:1000E0008D007E200800831203178D0083160317EE
:1000F0008C130C14831203170C08080083160317C3
:100100008C130C158B138B1B822855308D00AA3055
:100110008D008C148B170800831203130A30A6007D
:10012000080083120313A60B97284C208C209D20D7
:100130000800831203130D12080083120313DC302E
:100140008E000B308F000C1008009F149F18A628FB
:10015000831203131E0883120313A5000800A000D6
:10016000030EA1000800210E8300A00E200E08003F
:02400E00C220CE
:02401000FF3E71
:00000001FF
