:020000040000FA
:020000000528D1
:040002000034003492
:0800080008281D203E210628F6
:100010004821831203130C1C0F280C102A21831271
:1000200003138C1E15288C126120831203130D1EDE
:100030001B280D12322154210900831603130514C5
:1000400085148316031708148814831203139E0162
:10005000831603139E01831603139F018312031358
:1000600081309F008B170B17831603131815831607
:1000700003178711831603139A0183160313813024
:100080009900831603139816181283120313181677
:100090009817831603138C1630300921773C031907
:1000A0005228CF20831603130C14831203130C1051
:1000B0008312031390101016901610142521362168
:1000C0000800831203131A0866200800413A031936
:1000D0006D20093A0319742008004E21831203137E
:1000E00026089B205B2108004E2131300921831214
:1000F0000313AC0083120313B00083120313300800
:10010000831203178D0009219B200A30B620831229
:100110000313B00330083F3C031C90284930B00063
:10012000831203132C088312031330020319992836
:100130007D285B21080083120313A500F039831288
:100140000313A700A70E8312031325080F39831288
:100150000313A800831203132708B3208312031389
:100160002808B3200800BE20B6200800831203131D
:100170000C1EB8288312031399000800831203137E
:10018000AD00093C031CCA28C528831203132D089F
:10019000303E0800831203132D08373E080030302C
:1001A000831203178D007730831203178C001421FC
:1001B0003130831203178D004930831203178C00EE
:1001C00014210800F1208312031326088312031759
:1001D0008C00831203132B08831203178D00142144
:1001E00008003130831203178D000921013E83126C
:1001F0000313AB00493C0318FF284030AB002B0829
:10020000831203178C003130831203178D001421E1
:100210000800831203178D00831603178C130C1428
:10022000831203170C080800831603178C130C1590
:100230008B138B1B182955308D00AA308D008C1420
:100240008B178C1821290C110800831203136430BA
:10025000AA00080083120313AA0B3029E2202521EB
:1002600036210800831203130D12080083120313B2
:10027000DC308E000B308F000C1008009F149F188C
:100280003F29831203131E0883120313A6000800DC
:1002900083120313A000030EA100080083120313AE
:1002A000AF00030EAE00080083120313210E83007B
:1002B000A00E200E0800831203132E0E8300AF0E33
:0402C0002F0E0800F5
:02400E00C220CE
:02401000FF3E71
:00000001FF
