:020000040000FA
:020000000528D1
:040002000034003492
:0800080008281120222106281E
:100010002C21831203138C1E0F288C1241203821AF
:100020000900831603130514851483160317081497
:100030008814831203139E01831603139E018316F3
:1000400003139F018312031381309F008B170B173B
:1000500083160313181583160317871183160313CA
:100060009A0183160313813099008316031398169F
:1000700018128312031318169817831603138C167D
:100080000800831203131A08413A03194B20203A3F
:1000900003198620080032218312031326085220F8
:1000A0003F21080083120313A500F03983120313C4
:1000B000A700A70E8312031325080F398312031319
:1000C000A8008312031327086A2083120313280849
:1000D0006A20080075206D200800831203130C1E8F
:1000E0006F28831203139900080083120313AD00D5
:1000F000093C031C81287C28831203132D08303E01
:100100000800831203132D08373E080032218312A2
:100110000313260883120313A5008312031364300C
:10012000B40083120313FF30B500831203132508B4
:10013000A320831203133608F120BA306D20433018
:100140006D203F21080083120313B8003408B90062
:100150003808C02083120313BA08031DB528831280
:100160000313BB08031DB52800348312031335089D
:10017000D720831203133C08B6003D08B7000800DF
:1001800083120313BE0083120313BB01BA0183124F
:100190000313B90803190800831203133E088312DE
:1001A0000313BB070318BA0AB90BCC280800831243
:1001B0000313BC01BD01BF0083120313BA08031D62
:1001C000E8283F083B020318E8283B08BD00080068
:1001D00083120313BC0A3F08BB020318F028BA03BA
:1001E000DC28FF208312031340086D2083120313C1
:1001F00041086D208312031342086D20080014216A
:1002000083120313C3004408C2004308142183125D
:100210000313C3004408C1004308142183120313CD
:10022000C3004408C000080083120313BB000A3057
:10023000D720831203133D08303EC40083120313FA
:100240003C0808009F149F182329831203131E08DB
:1002500083120313A600080083120313A000030EE9
:10026000A100080083120313AF00030EAE000800C4
:1002700083120313210E8300A00E200E08008312A8
:0C02800003132E0E8300AF0E2F0E08009B
:02400E00C220CE
:02401000FF3E71
:00000001FF
