:020000040000FA
:020000000528D1
:040002000034003492
:08000800082817203121062809
:100010003B21831203130C181D21831203138C1A26
:100020005520831203130D1A25214321090083163D
:1000300003130514851483160317081488148316F4
:1000400003139F018312031381309F008B170B173B
:1000500083160313181583160317871183160313CA
:100060009A0183160313813099008316031398169F
:1000700018128312031318169817831603138C167D
:100080003030FF20773C031D4628C520831603131C
:100090000C14831203130C10831203139010101608
:1000A00090161010182129210800831203131A0832
:1000B0005A200800413A03196120093A03196820BF
:1000C00008003F218312031326088F2048210800CF
:1000D0003F213130FF2083120313AC00831203133E
:1000E000B000831203133008831203178D00FF2022
:1000F0008F200A30AA2083120313B00A3008493C2B
:10010000031884284030B000831203132C08831294
:1001100003133002031D8D28712848210800831223
:100120000313A500703983120313A700A70E8312CF
:1001300003132508573983120313A80083120313EE
:100140002808A720831203132708A7200800B2203D
:10015000AA200800831203130C1EAC288312031379
:100160009900080083120313AD00093C0319BB2852
:100170000318C028BB28831203132D08303E080043
:10018000831203132D08373E080030308312031703
:100190008D007730831203178C000A2131308312CF
:1001A00003178D004930831203178C000A210800C1
:1001B000E720831203132608831203178C0083128F
:1001C00003132B08831203178D000A210800313016
:1001D000831203178D00FF20013E83120313AB002F
:1001E000493C0318F5284030AB002B088312031755
:1001F0008C003130831203178D000A21080083120E
:1002000003178D00831603178C130C148312031726
:100210000C080800831603178C130C158B138B1B0B
:100220000E2955308D00AA308D008C148B170800D4
:10023000831203130A30AA00080083120313AA0BC7
:100240002329D820182129210800831203130D1215
:10025000080083120313DC308E000B308F000C106B
:1002600008009F149F183229831203131E0883125B
:100270000313A6000800A000030EA1000800AF00B1
:10028000030EAE000800210E8300A00E200E080011
:0A0290002E0E8300AF0E2F0E0800A3
:02400E00C220CE
:02401000FF3E71
:00000001FF
