:020000040000FA
:020000000528D1
:040002000034003492
:0800080008281D20DC21062858
:10001000E621831203130C1C0F280C10C821831235
:1000200003138C1E15288C126820831203130D1ED7
:100030001B280D12D021EC2109008316031305148F
:1000400085148316031708148814831203139E0162
:10005000831603139E01831603139F018312031358
:1000600081309F008B170B17831603131815831607
:1000700003178711831603139A0183160313813024
:100080009900831603139816181283120313181677
:100090009817831603138C163030A721773C031969
:1000A00052286D21831603130C14831203130C10B2
:1000B000831203139010101690161014C321D4212C
:1000C0000800831203138C1E672868208C12080016
:1000D000831203131A08413A03197520093A0319C8
:1000E0007A20293A03199F200800831203133D0840
:1000F000392108003130A72183120313B500831280
:100100000313AF00831203132F08831203178D000C
:10011000A72139210A30542183120313AF032F087A
:100120003F3C031C95284930AF0083120313350868
:10013000831203132F0203199E28822808008312BA
:1001400003133D08A820BA3054214330542108003D
:1001500083120313C000831203136430B2008312AE
:100160000313FF30AE00831203134008BC20831238
:10017000031336080A21080083120313BF00320854
:10018000B1003F08D92083120313B308031DCE2802
:1001900083120313B408031DCE2800348312031303
:1001A0002E08F020831203132508B6003808B70084
:1001B000080083120313B00083120313B401B301C8
:1001C00083120313B10803190800831203133008C4
:1001D00083120313B4070318B30AB10BE528080010
:1001E00083120313A501B801AD0083120313B308F2
:1001F000031D01292D083402031801293408B80011
:10020000080083120313A50A2D08B4020318092954
:10021000B303F5282B2183120313A1002008A400A7
:1002200021082B2183120313A1002008A300210819
:100230002B2183120313A1002008A20083120313B1
:100240002208542183120313230854218312031319
:1002500024085421080083120313B4000A30F0204C
:10026000831203133808303EA000831203132508BD
:10027000080083120313C000F03983120313C10076
:10028000C10E8312031340080F3983120313C200F7
:100290008312031341085121831203134208512191
:1002A00008005C2154210800831203130C1E5629F8
:1002B000831203139900080083120313BC00093C46
:1002C000031C68296329831203133C08303E08008D
:1002D000831203133C08373E0800303083120317A3
:1002E0008D007730831203178C00B22131308312D6
:1002F00003178D004930831203178C00B2210800C8
:100300008F21831203133D08831203178C0083127D
:1003100003133908831203178D00B221080031300E
:10032000831203178D00A721013E83120313B90026
:10033000493C03189D294030B9003908831203173E
:100340008C003130831203178D00B2210800831214
:1003500003178D00831603178C130C1483120317D5
:100360000C080800831603178C130C158B138B1BBA
:10037000B62955308D00AA308D008C148B178C183F
:10038000BF290C110800831203136430A900080070
:1003900083120313A90BCE298021C321D421080085
:1003A000831203130D12080083120313DC308E0036
:1003B0000B308F000C1008009F149F18DD2983124A
:1003C00003131E0883120313BD00080083120313D6
:1003D000C300030EBA000800831203133A0E830011
:0603E000C30E430E0800ED
:02400E00C220CE
:02401000FF3E71
:00000001FF
