:020000040000FA
:020000000528D1
:040002000034003492
:0800080009280C200121482009
:1000100006280B211121090083160313870183127F
:10002000031387018316031305148514831603171E
:1000300008148814831203139E01831603139E0170
:10004000831603139F018312031381309F008B17C4
:100050000B170800831203132608C9005530C90284
:10006000031833289D285530C9020318A128A52854
:100070000800831203132608C9005530C90203186B
:1000800042289D285530C9020318A128A928080034
:100090004B2081200800831203136430B4008030A9
:1000A000B500831203132608C900803C031C67288F
:1000B0004908B320C7006430CB0047084B02C70093
:1000C0006228C701831203134908B320C600643CA9
:1000D00003186F28C830CB0046084B02C6004908F9
:1000E000803C03188528FF30CB0049084B02B32021
:1000F000C5006430CB0045084B02C5008028C5010F
:10010000080083120313450803198828A1209720AB
:1001100083120313470803198F289D209720831209
:100120000313460803199628A52097200800831278
:100130000313CA00CA0B9A280800871507118710F5
:100140000800871107158710080087110711871409
:100150000800831203139630C5000130C700003039
:10016000C6008120080083120313B8003408B900C8
:100170003808D02083120313BA08031DC528831240
:100180000313BB08031DC52800348312031335086D
:10019000E720831203133C08B6003D08B7000800AF
:1001A00083120313BE0083120313BB01BA0183122F
:1001B0000313B90803190800831203133E088312BE
:1001C0000313BB070318BA0AB90BDC280800831213
:1001D0000313BC01BD01BF0083120313BA08031D42
:1001E000F8283F083B020318F8283B08BD00080028
:1001F00083120313BC0A3F08BB0203180029BA0389
:10020000EC289F149F180229831203131E088312DF
:100210000313A600080083120313A000030EA1001D
:10022000080083120313210E8300A00E200E080085
:02400E00C220CE
:02401000FF3E71
:00000001FF
