:020000040000FA
:020000000528D1
:040002000034003492
:0800080008280F201F21062823
:100010002921831203138C1A3920312109008316F8
:100020000313051485148316031708148814831604
:1000300003139F018312031381309F008B170B174B
:1000400083160313181583160317871183160313DA
:100050009A018316031381309900831603139816AF
:1000600018128312031318169817831603138C168D
:100070000800831203131A083E200800413A0319AE
:100080004520203A03194C2008002D218312031328
:100090002308EB20362108002D21831203132308A7
:1000A0005720A7300621433006213621080083124D
:1000B0000313A200831203136430B30083120313EB
:1000C000FF30B4008312031322086B208312031342
:1000D0003508BA20080083120313B7003308A900BB
:1000E0003708882083120313AC08031D7C28831271
:1000F0000313AB08031D7D28003483120313340857
:100100009F20831203133808B5003908B600080091
:1001100083120313B20083120313AB01AC018312E9
:100120000313A9080319080083120313320883126A
:100130000313AB070318AC0AA90B94280800831219
:100140000313B801B901BA0083120313AC08031DED
:10015000B028BA08AB020318B0283A08B900080062
:1001600083120313B80A3A08AB02031CB828AC0385
:10017000A4280800C820831203132E080621831226
:1001800003132F08062183120313300806210800E9
:10019000DD2083120313AD003108B0002D08DD20EF
:1001A00083120313AD003108AF002D08DD20831248
:1001B0000313AD003108AE00080083120313AB0037
:1001C0000A309F20831203133908303EB100831296
:1001D00003133808080083120313A2007039831236
:1001E0000313A400A40E83120313220857398312A9
:1001F0000313A5008312031325080321831203139D
:100200002408032108000E2106210800831203138D
:100210000C1E08298312031399000800831203138C
:10022000A600093C031C1A2915298312031326086A
:10023000303E0800831203132608373E08009F143F
:100240009F182029831203131E0883120313A3008F
:100250000800A000030EA1000800A800030EA700DC
:100260000800210E8300A00E200E0800270E830038
:06027000A80E280E080094
:02400E00C220CE
:02401000FF3E71
:00000001FF
